:020000040800F2
:10000000D006002029020008B3110008450E0008A0
:10001000B11100081F040008611200080000000070
:10002000000000000000000000000000B711000800
:100030002104000800000000B5110008B9110008F3
:10004000430200084302000843020008430200087C
:10005000430200084302000843020008430200086C
:10006000430200084302000843020008430200085C
:10007000430200084302000843020008430200084C
:10008000430200084302000843020008430200083C
:10009000430200084302000843020008430200082C
:1000A000430200084302000843020008430200081C
:1000B000430200084302000843020008430200080C
:1000C00043020008430200084302000843020008FC
:1000D00043020008430200084302000843020008EC
:1000E00043020008430200084302000843020008DC
:1000F00043020008430200084302000843020008CC
:1001000043020008430200084302000843020008BB
:1001100043020008430200084302000843020008AB
:10012000430200084302000843020008430200089B
:10013000430200084302000843020008430200088B
:10014000430200084302000843020008430200087B
:10015000430200084302000843020008430200086B
:10016000430200084302000843020008430200085B
:100170004302000843020008430200080000000098
:10018000430200084302000800F002F800F03CF8C7
:100190000AA090E8000C82448344AAF10107DA45E2
:1001A00001D100F031F8AFF2090EBAE80F0013F0F8
:1001B000010F18BFFB1A43F0010318476C1600002B
:1001C0008C160000103A24BF78C878C1FAD85207BC
:1001D00024BF30C830C144BF04680C6070470000C1
:1001E0000023002400250026103A28BF78C1FBD840
:1001F000520728BF30C148BF0B6070471FB501F0E0
:1002000085F81FBD10B510BD00F0CFF81146FFF7FF
:10021000F5FF01F037F800F0EDF803B4FFF7F2FF57
:1002200003BC00F0F5F80000094880470948004782
:10023000FEE7FEE7FEE7FEE7FEE7FEE7FEE7FEE796
:10024000FEE7FEE704480549054A064B70470000F3
:100250005112000889010008D0000020D0060020BB
:10026000D0020020D002002053EA020C00F0698086
:100270002DE9F04B4FF00006002B1FBFB3FA83F5BA
:1002800003FA05F424FA05F65E4012BF1643B2FAEB
:1002900082F502FA05F4C5F120051EBF22FA05FC1D
:1002A00044EA0C04203556EA044C4FEA144418BFC3
:1002B000641C4FF000084FF00009904271EB030CF2
:1002C00039D3002919BFB1FA81F701FA07F6B0FA5C
:1002D00080F700FA07F6C7F120071EBF20FA07FCD7
:1002E00046EA0C062037B6FBF4FCA7EB0507103FE7
:1002F00007F01F0BCBF120060CFA0BFB2CFA06F6CD
:1003000044BFB3460026202FA4BF5E464FF0000B2B
:100310005BEA060C08BF4FF0010B19EB0B09ABFBB6
:10032000027C48EB0608C01B06FB02CC0BFB03CC8F
:1003300071EB0C01C1E70B46024641464846BDE859
:10034000F08B13B54FF000004FF00001AFF30080C9
:10035000BDE81C4070474FF0000200B513469446BC
:100360009646203922BFA0E80C50A0E80C50B1F10D
:100370002001BFF4F7AF090728BFA0E80C5048BF21
:100380000CC05DF804EB890028BF40F8042B08BFBF
:10039000704748BF20F8022B11F0804F18BF00F8BB
:1003A000012B7047704770477047754600F02CF876
:1003B000AE4605006946534620F00700854618B052
:1003C00020B5FFF73FFFBDE820404FF000064FF09B
:1003D00000074FF000084FF0000B21F00701AC467A
:1003E000ACE8C009ACE8C009ACE8C009ACE8C00999
:1003F0008D46704710B50446AFF300802046BDE837
:100400001040FFF70ABF0000004870476C00002052
:1004100001491820ABBEFEE7260002007047FEE748
:100420007047000030B5B3F5804F05D06FF07041D4
:1004300040F82210002030BD8C690B688D68234382
:100440004C688989240144EA0524234343EA014195
:1004500050F82230014C23401943E9E70000F0CF67
:1004600010B50A6850F8223023F0010340F822301A
:100470008C68082C23D000234A682243CC681C4394
:100480000B6922431A434B690E4C1A43CB691A433A
:100490000B6A1A434B6A1A438B6A1A43CB6A1A4394
:1004A0000B6B1A438B691343CA6B09681A4350F8E4
:1004B0002130A343134340F82130002010BD4023D6
:1004C000DAE700007FFF0F0030B5D1E9003443EADE
:1004D00004138C688D89240244EA054423430C8A62
:1004E000094D00EB820005EB045423430C7D6D01A4
:1004F00005EB0464896923430B43416801F04041E3
:100500000B434360002030BD0000F0FF70B504468F
:1005100000F040F90546601C02D00448007804440D
:1005200000F038F9401BA042FAD370BD0C00002047
:10053000F0B587B014216846FFF70DFF1548016834
:10054000002924D10121016013480024016841F0F1
:10055000010101600068022500F0010005904FF4E0
:10056000F060CDE9000502AA03260C2782E8D0003E
:1005700069460A4800F016F84EF2B300CDE90005CE
:1005800002AA694682E8D000054800F00BF807B0DF
:10059000F0BD00000000002038380240001002408A
:1005A000000C02402DE9F84FDFF8BCA10022012524
:1005B00003264FF00F090AF1040BAAF1040E00BF45
:1005C0000B6805FA02F42340A34270D10F7907F0BB
:1005D0000307012F01D0022F16D187684FEA420886
:1005E00006FA08FC27EA0C07D1F80CC00CFA08FC44
:1005F0004CEA070CC0F808C04768A7430C79C4F35D
:10060000001494403C4344600C79E443A4070AD0AE
:10061000C4684FEA420C06FA0CF7BC438F6807FA2D
:100620000CF72743C7600C7904F00304022C12D1A5
:10063000D40800EB840CDCF820405707FF0E09FAC1
:1006400007F824EA0804D1F8108008FA07F848EA05
:100650000408CCF8208004684FEA420C06FA0CF734
:10066000BC430F7907F0030707FA0CF7274307602D
:100670004C6814F4403F70D03C4C276847F48047E6
:100680002760246822F0030704F480440094384C67
:1006900007EB040CDCF8084897074FEA177809FACB
:1006A00008F7BC43334FB84202D1002724E054E09E
:1006B000314FB84201D101271EE0304FB84201D17D
:1006C000022719E02E4FB84201D1032714E02D4F25
:1006D000B84201D104270FE02B4FB84201D10527C2
:1006E0000AE02A4FB84201D1062705E0284FB84258
:1006F00001D1072700E0082707FA08F72743CCF8BD
:100700000878DAF800405746D1F804C09C435FEA05
:10071000CC2C00D51C433C60DBF800405F46D1F890
:1007200004C09C435FEA8C2C00D51C433C60DEF87F
:1007300000407746D1F804C09C435FEA8C3C00D56A
:100740001C433C60084F083F3C68D1F804C09C4300
:100750005FEACC3C00D51C433C60521C102AFFF4DD
:100760002FAFBDE8F88F0000083C0140443802403C
:100770000030014000000240000402400008024036
:10078000000C024000100240001402400018024019
:10079000001C024001488068704700000C000020E7
:1007A0000248816802781144816070470C00002083
:1007B0000B4810B5016841F400710160016841F413
:1007C00080610160016841F480710160032000F0E4
:1007D00061F80F2000F006F800F024F8002010BDAA
:1007E000003C024070B50D4D04464FF47A712878F4
:1007F000B1FBF0F00A490968B1FBF0F000F00EFB24
:1008000048B9102C07D200222146501E00F022F8D1
:1008100000206C6070BD012070BD00000C00002045
:10082000180000200A4808B5016841F480410160C1
:10083000006800F4804000900548001F016841F006
:1008400080510160006800F08050009008BD0000F9
:1008500044380240F0B40E4B1B680C46C3F302232D
:10086000C3F10705042D00D90425191D072901D25C
:10087000002300E0DB1E012606FA05F1491E214097
:1008800099409E40761E16403143F0BC00F0E9BC12
:100890000CED00E0064900F0070208684FF6FF0380
:1008A000184040EA0220034A1043086070470000E5
:1008B0000CED00E00000FA052DE9F0470E460500BA
:1008C00065D0DFF81481D8F80000F7B200F0070017
:1008D000B04207D288F80070D8F8000000F0070096
:1008E000B04254D128683D4C810712D5400703D54A
:1008F000206840F4E05020602878000703D5206885
:1009000040F4604020602068A96820F0F0000843AF
:1009100020602878C0072DD0304968680839012840
:1009200012D0022813D0032811D0096889070029A2
:100930002DDA216821F0030101432160FFF72AFF2E
:10094000814641F2883A0EE009688903EFE70968B9
:100950008901ECE7FFF71EFFA0EB0901514502D921
:100960000320BDE8F0872068696800F00C00B0EB58
:10097000810FEFD1D8F80010404601F00701B142D5
:1009800007D90770006800F00700B04201D00120CD
:10099000E7E72878400705D52068E96820F4E050AB
:1009A000084320602878000706D52068296920F4CC
:1009B000604040EAC100206000F018F82168084A51
:1009C000C1F30311515CC84006490860064800683D
:1009D000FFF708FF0020C4E7003C0240083802404F
:1009E000161800081800002010000020154810B547
:1009F000006810F00C02144813D01449042A0FD0D8
:100A0000082A0ED10F4C241F2268236802F03F02EF
:100A10005B0207D52068C0F38810A0FB010106E047
:100A2000084610BD2168C1F38811A1FB0001002315
:100A3000FFF71AFC2168C1F30141491C4900B0FBD2
:100A4000F1F010BD083802400024F40040787D0128
:100A50002DE9F84F04006ED02078DFF84C93C007E2
:100A6000A9F104054AD009F104000168C1F381012C
:100A7000012908D00068C0F3810002280AD1D9F802
:100A80000000400206D52868800337D5606800283A
:100A9000E1D033E06068B0F5803F10D0B0F5A02F12
:100AA000286810D020F480302860286820F4802046
:100AB00028606068A8B1FFF76DFE06460DE0286863
:100AC00040F48030F4E740F480202860F7E700BF6E
:100AD000FFF760FE801B642873D828688003F7D571
:100AE0000CE0FFF757FE064605E000BFFFF752FE99
:100AF000801B6428F0D828688003F7D42078DFF8BA
:100B0000AC8280074FF0000A3ED5A748001D01685F
:100B100011F00C0F08D00068C0F3810002280BD13F
:100B2000D9F80000400207D42868800716D5E0688D
:100B3000012800D112E033E1E068B8B10120C8F823
:100B40000000FFF727FE064605E000BFFFF722FE84
:100B5000801B0228C0D828688007F7D5286821693B
:100B600020F0F80040EAC10028600DE0C8F800A0BD
:100B7000FFF710FE064604E0FFF70CFE801B02287C
:100B80001FD828688007F7D42078000722D5864F21
:100B900087486169703771B101210160FFF7FAFD83
:100BA000064604E0FFF7F6FD801B022809D83868E6
:100BB0008007F7D50EE0C0F800A0FFF7EBFD064672
:100BC00005E082E0FFF7E6FD801B02287DD838684B
:100BD0008007F7D42078400768D5DFF8CCB100272C
:100BE0000BF13C0BDBF80000C0000BD4DBF800106D
:100BF00041F08051CBF80010DBF80000012700F035
:100C0000805000906B4E3068C00510D4306840F4BE
:100C100080703060FFF7BEFD009005E0FFF7BAFD81
:100C20000099401A022850D83068C005F6D55E4EAB
:100C3000A0686C3601280FD00528306810D020F04D
:100C400001003060306820F004003060A068B8B166
:100C5000FFF7A0FD00900FE0306840F00100F4E7DE
:100C600040F004003060F7E7FFF794FD0099411A67
:100C700041F28830814266D830688007F4D50EE0B2
:100C8000FFF788FD009007E0FFF784FD0099411A07
:100C900041F28830814256D830688007F4D42FB1B1
:100CA000DBF8001021F08051CBF80010A069C8B328
:100CB0003D49091D0968C1F3810102294AD0022872
:100CC000504607D0C8F8600000E03CE0FFF762FD46
:100CD00004463BE04746C8F86000FFF75BFD064668
:100CE00005E000BFFFF756FD801B02282BD82868BF
:100CF0008001F7D4D4E907010843A16A2E4A4908C4
:100D000002EB0141626A41EA8211084394F82C1017
:100D100040EA0161C9F8001001203866FFF73AFD8A
:100D2000044606E03EE000BFFFF734FD001B02284A
:100D300009D828688001F7D534E000BFFFF72AFD05
:100D4000001B022802D90320BDE8F88F2868800123
:100D5000F4D427E00128F7D0D9F80000E26900F4C4
:100D6000800191421CD1226A00F03F01914217D1CB
:100D700047F6C071626A0140B1EB821F10D1A26ACE
:100D80004FF0FF3300F4403103EB5202B1EB024F5E
:100D900006D194F82C1000F07060B0EB016F01D018
:100DA0000120D1E70020CFE704380240000047428D
:100DB000800E4742007000400000FFFF70B51546EE
:100DC0000E46040003D094F8490010B107E001205A
:100DD00070BD002084F84800204600F01DF804F1A2
:100DE00008012068FFF73CFB3146A2682068FFF746
:100DF0006BFBD4E901022946236BFFF713FB216843
:100E0000A06851F8202042F0010241F82020012082
:100E100084F84900002070BDFFF78ABB10B5401E62
:100E2000B0F1807F01D3012010BD4FF0E02460615C
:100E30000F21601700F015FA0020A0610720206143
:100E4000002010BDFEE7000010B514460B46024618
:100E500000F0AAF80248210A0170047010BD0000D9
:100E60000000046030B504460E484FF4963540F259
:100E70003F120078012806D0032804D0022805D0AC
:100E8000042803D007E01346EF2200E0EF230021FF
:100E9000084600F089F80449200A08700C706D1E9D
:100EA000FBD130BD080000200000046070B5141AAA
:100EB0005E1A641C761C74434FF49636049DB4424B
:100EC00000D934469BB292B289B280B200F06CF87D
:100ED000280A044902E008700D70641E002CFAD143
:100EE00070BD00000000046010B54FF0C044012048
:100EF00020706420FFF70AFB28202070C02020709B
:100F0000284826210170C121217011210170C521BD
:100F10002170352101703E210170C7212170BE2151
:100F2000017036212170482101703A21217055212C
:100F30000170B1212170002101701F2101702A214F
:100F400021700021017001700170EF2101702B21CF
:100F50002170002101700170012101703F21017099
:100F600034212170B721217007210170B621217031
:100F70000A21017082210170272101700021017076
:100F8000112020706420FFF7C1FA2920207064200E
:100F9000FFF7BCFA2C202070BDE810400520FFF7B9
:100FA000B5BA00000000046070B54FF0C0452A24B7
:100FB0002C70094C060A26702070100A20702270CE
:100FC0002B202870080A20702170180A20702370C6
:100FD0002C20287070BD0000000004602DE9FE4F39
:100FE0009A460D9C88468146F02852DAB8F5A07FD3
:100FF0004FDA04EB440109EB4100012849D408EB26
:10100000C400012845D42948407818B9B02A01D332
:10101000521CD2B204EB0900029008F101000190C9
:10102000234902EB8200002500EB010B01E0052DB6
:1010300009D01BF805700026F8070ED0012C04D04B
:10104000CDF800A00FE00027F5E708EB060081B21D
:1010500009EB050080B2524624E00C9850450FD0B1
:10106000012C18D00090029806FB044105FB0402F5
:1010700001980B1806FB048105FB0490FFF716FF8F
:10108000761C7F0876B2082ED6DB6D1C6DB2062D5D
:10109000CDDBBDE8FE8F08EB060081B209EB050051
:1010A00080B20C9AFFF7D0FEEAE7000008000020AB
:1010B000161300082DE9FC4F0746DDE90B9606EBF9
:1010C000460045009B469246884600240DE000BF3E
:1010D00005FB0480CDE9009600B25B465146FFF760
:1010E0007DFF641CA4B2282C02D23A5D002AEFD105
:1010F000BDE8FC8F10B501241149124B4FF0C042DE
:10110000012805D0022808D003280CD0042810D0CC
:101110000C7036201070882010E0022008703620F5
:10112000107028200AE00320087036201070482034
:1011300004E00420087036201070E820187010BDFC
:10114000080000200000046000B587B01C2168463C
:10115000FFF701F914494FF020404FF48052086026
:101160001248486000208860C86008614861886152
:10117000C8610862C1E90902C862086348638863FC
:1011800048640621CDE90010CDE9021004900590D5
:101190000690002269460448FFF710FE002801D09F
:1011A00072B6FEE707B000BD1C000020040100A0DD
:1011B000FEE7FEE770477047FFF7F2BA30B593B02D
:1011C00030216846FFF7C7F814210CA8FFF7C3F8D1
:1011D0001D480025016841F080510160006800F061
:1011E000805011901948016841F480410160006805
:1011F000022400F4804011900120039010200490FC
:10120000009406940820CDE90750A820CDE90904F0
:1012100004200B906846FFF71BFC08B172B6FEE78E
:101220000CA90F2081E831004FF4A0500F904FF42B
:101230008050109005210CA8FFF73EFB002801D03C
:1012400072B6FEE713B030BD403802400070004077
:101250000248016841F470010160704788ED00E0C8
:10126000FEE70907090E002804DB00F1E02080F802
:101270000014704700F00F0000F1E02080F8141D0A
:10128000704700001CB5FFF793FAFFF797FF184867
:101290000024016841F080010160016801F08001D3
:1012A0000091016841F010010160016801F0100136
:1012B0000091016841F008010160006800F0080039
:1012C0000090FFF741FFFFF70FFE0320FFF712FF2B
:1012D0000020FFF7C7FD01254FF6FF760A223346AF
:1012E000114604A0CDE90045FFF7E4FEF6E7000053
:1012F000303802404D616E746170204A6977612018
:1013000041776F6B2061776F6B0000004FF040708A
:10131000E1EE100A704700000000003E5B4F5B3EAC
:101320003E6B4F6B3E1C3E7C3E1C183C7E3C181CAA
:10133000577D571C1C5E7F5E1C00183C1800FFE7A1
:10134000C3E7FF0018241800FFE7DBE7FF30483A47
:10135000060E2629792926407F050507407F0525A9
:101360003F5A3CE73C5A7F3E1C1C08081C1C3E7F31
:1013700014227F22145F5F005F5F06097F017F00F8
:101380006689956A606060606094A2FFA294080418
:101390007E040810207E201008082A1C08081C2A39
:1013A00008081E101010100C1E0C1E0C30383E3891
:1013B00030060E3E0E06000000000000005F000038
:1013C0000007000700147F147F14242A7F2A1223A9
:1013D0001308646236495620500008070300001CB9
:1013E0002241000041221C002A1C7F1C2A08083EC2
:1013F00008080080703000080808080800006060D5
:101400000020100804023E5149453E00427F400042
:1014100072494949462141494D331814127F10271A
:10142000454545393C4A4949314121110907364969
:10143000494936464949291E00001400000040343D
:101440000000000814224114141414140041221442
:101450000802015909063E415D594E7C1211127C69
:101460007F494949363E414141227F4141413E7FCA
:10147000494949417F090909013E414151737F08AA
:1014800008087F00417F41002040413F017F081450
:1014900022417F404040407F021C027F7F040810B1
:1014A0007F3E4141413E7F090909063E4151215E8F
:1014B0007F09192946264949493203017F01033F23
:1014C0004040403F1F2040201F3F4038403F6314B2
:1014D00008146303047804036159494D43007F41B4
:1014E00041410204081020004141417F04020102F1
:1014F0000440404040400003070800205454784016
:101500007F284444383844444428384444287F38A9
:101510005454541800087E090218A4A49C787F082B
:1015200004047800447D40002040403D007F1028A6
:10153000440000417F40007C047804787C08040467
:10154000783844444438FC1824241818242418FCFF
:101550007C08040408485454542404043F44243CA4
:101560004040207C1C2040201C3C4030403C442813
:101570001028444C9090907C4464544C44000836AD
:10158000410000007700000041360800020102041B
:10159000023C2623263C1EA1A161123A4040207A3B
:1015A0003854545559215555794122545478422183
:1015B0005554784020545579400C1E5272123955BA
:1015C00055555939545454593955545458000045B7
:1015D0007C410002457D420001457C407D12111294
:1015E0007DF0282528F07C545545002054547C5427
:1015F0007C0A097F4932494949323A4444443A32E3
:101600004A4848303A4141217A3A42402078009D88
:10161000A0A07D3D4242423D3D4040403D3C24FF34
:101620002424487E4943662B2FFC2F2BFF0929F6E3
:1016300020C0887E090320545479410000447D4134
:101640003048484A32384040227A007A0A0A727D8D
:101650000D19317D2629292F2826292929263048A8
:101660004D4020380808080808080808382F10C816
:10167000ACBA2F102834FA00007B000008142A149A
:101680002222142A14085500550055AA55AA55AA15
:10169000FF55FF55FF000000FF00101010FF001461
:1016A0001414FF001010FF00FF1010F010F01414BD
:1016B00014FC001414F700FF0000FF00FF1414F4E2
:1016C00004FC141417101F10101F101F1414141FE3
:1016D00000101010F0000000001F101010101F105C
:1016E000101010F010000000FF101010101010105B
:1016F0001010FF10000000FF140000FF00FF0000AA
:101700001F10170000FC04F414141710171414F41D
:1017100004F40000FF00F714141414141414F70058
:10172000F7141414171410101F101F141414F414A9
:101730001010F010F000001F101F0000001F140018
:101740000000FC140000F010F01010FF10FF141443
:1017500014FF141010101F00000000F010FFFFFF16
:10176000FFFFF0F0F0F0F0FFFFFF0000000000FFCF
:10177000FF0F0F0F0F0F3844443844FC4A4A4A34D5
:101780007E02020606027E027E02635549416338EC
:1017900044443C04407E201E2006027E020299A59D
:1017A000E7A5991C2A492A1C4C7201724C304A4DFB
:1017B0004D303048784830BC625A463D3E49494930
:1017C000007E0101017E2A2A2A2A2A44445F4444D9
:1017D00040514A444040444A51400000FF0103E068
:1017E00080FF000008086B6B083612362436060F9F
:1017F000090F06000018180000001010003040FF0C
:101800000101001F01011E00191D1712003C3C3C84
:101810003C00000000000000000000000000010289
:10182000030406070809000048180008000000200B
:101830001C000000C4010008641800081C000020FF
:10184000B4060000E00100080000000000000000F5
:101850000100000001000000100000000000000076
:041860000024F4006C
:040000050800018965
:00000001FF
